{
  "contractName": "OrganDonation",
  "abi": [
    {
      "inputs": [],
      "stateMutability": "nonpayable",
      "type": "constructor"
    },
    {
      "anonymous": false,
      "inputs": [
        {
          "indexed": false,
          "internalType": "address",
          "name": "userAddress",
          "type": "address"
        },
        {
          "indexed": false,
          "internalType": "string",
          "name": "name",
          "type": "string"
        },
        {
          "indexed": false,
          "internalType": "string",
          "name": "email",
          "type": "string"
        }
      ],
      "name": "UserRegistered",
      "type": "event"
    },
    {
      "inputs": [],
      "name": "admin",
      "outputs": [
        {
          "internalType": "address",
          "name": "",
          "type": "address"
        }
      ],
      "stateMutability": "view",
      "type": "function",
      "constant": true
    },
    {
      "inputs": [
        {
          "internalType": "uint256",
          "name": "",
          "type": "uint256"
        }
      ],
      "name": "aliveDonors",
      "outputs": [
        {
          "internalType": "address",
          "name": "donorAddress",
          "type": "address"
        },
        {
          "internalType": "string",
          "name": "name",
          "type": "string"
        },
        {
          "internalType": "string",
          "name": "details",
          "type": "string"
        },
        {
          "internalType": "string",
          "name": "storagedetails",
          "type": "string"
        }
      ],
      "stateMutability": "view",
      "type": "function",
      "constant": true
    },
    {
      "inputs": [
        {
          "internalType": "uint256",
          "name": "",
          "type": "uint256"
        }
      ],
      "name": "deceasedDonors",
      "outputs": [
        {
          "internalType": "address",
          "name": "donorAddress",
          "type": "address"
        },
        {
          "internalType": "string",
          "name": "name",
          "type": "string"
        },
        {
          "internalType": "string",
          "name": "details",
          "type": "string"
        },
        {
          "internalType": "string",
          "name": "storagedetails",
          "type": "string"
        }
      ],
      "stateMutability": "view",
      "type": "function",
      "constant": true
    },
    {
      "inputs": [
        {
          "internalType": "uint256",
          "name": "",
          "type": "uint256"
        }
      ],
      "name": "users",
      "outputs": [
        {
          "internalType": "address",
          "name": "donorAddress",
          "type": "address"
        },
        {
          "internalType": "string",
          "name": "name",
          "type": "string"
        },
        {
          "internalType": "uint256",
          "name": "aadhaar",
          "type": "uint256"
        }
      ],
      "stateMutability": "view",
      "type": "function",
      "constant": true
    },
    {
      "inputs": [
        {
          "internalType": "string",
          "name": "_name",
          "type": "string"
        },
        {
          "internalType": "uint256",
          "name": "_aadhaar",
          "type": "uint256"
        },
        {
          "internalType": "string[]",
          "name": "_donate",
          "type": "string[]"
        },
        {
          "internalType": "string[]",
          "name": "_donatedeath",
          "type": "string[]"
        }
      ],
      "name": "registerUser",
      "outputs": [],
      "stateMutability": "nonpayable",
      "type": "function"
    },
    {
      "inputs": [
        {
          "internalType": "string",
          "name": "_name",
          "type": "string"
        },
        {
          "internalType": "string[]",
          "name": "_donatedeath",
          "type": "string[]"
        },
        {
          "internalType": "string",
          "name": "_details",
          "type": "string"
        },
        {
          "internalType": "string",
          "name": "_storagedetails",
          "type": "string"
        }
      ],
      "name": "registerDeceasedDonor",
      "outputs": [],
      "stateMutability": "nonpayable",
      "type": "function"
    },
    {
      "inputs": [
        {
          "internalType": "string",
          "name": "_name",
          "type": "string"
        },
        {
          "internalType": "string[]",
          "name": "_donate",
          "type": "string[]"
        },
        {
          "internalType": "string",
          "name": "_details",
          "type": "string"
        },
        {
          "internalType": "string",
          "name": "_storagedetails",
          "type": "string"
        }
      ],
      "name": "registerAliveDonor",
      "outputs": [],
      "stateMutability": "nonpayable",
      "type": "function"
    },
    {
      "inputs": [
        {
          "internalType": "uint256",
          "name": "index",
          "type": "uint256"
        }
      ],
      "name": "getUserData",
      "outputs": [
        {
          "internalType": "address",
          "name": "donorAddress",
          "type": "address"
        },
        {
          "internalType": "string",
          "name": "name",
          "type": "string"
        },
        {
          "internalType": "string[]",
          "name": "donate",
          "type": "string[]"
        },
        {
          "internalType": "string[]",
          "name": "donatedeath",
          "type": "string[]"
        }
      ],
      "stateMutability": "view",
      "type": "function",
      "constant": true
    },
    {
      "inputs": [
        {
          "internalType": "uint256",
          "name": "index",
          "type": "uint256"
        }
      ],
      "name": "getDeceasedDonorData",
      "outputs": [
        {
          "internalType": "address",
          "name": "donorAddress",
          "type": "address"
        },
        {
          "internalType": "string",
          "name": "name",
          "type": "string"
        },
        {
          "internalType": "string[]",
          "name": "donatedeath",
          "type": "string[]"
        },
        {
          "internalType": "string",
          "name": "details",
          "type": "string"
        },
        {
          "internalType": "string",
          "name": "storagedetails",
          "type": "string"
        }
      ],
      "stateMutability": "view",
      "type": "function",
      "constant": true
    },
    {
      "inputs": [
        {
          "internalType": "uint256",
          "name": "index",
          "type": "uint256"
        }
      ],
      "name": "getAliveDonorData",
      "outputs": [
        {
          "internalType": "address",
          "name": "donorAddress",
          "type": "address"
        },
        {
          "internalType": "string",
          "name": "name",
          "type": "string"
        },
        {
          "internalType": "string[]",
          "name": "donate",
          "type": "string[]"
        },
        {
          "internalType": "string",
          "name": "details",
          "type": "string"
        },
        {
          "internalType": "string",
          "name": "storagedetails",
          "type": "string"
        }
      ],
      "stateMutability": "view",
      "type": "function",
      "constant": true
    }
  ],
  "bytecode": "0x608060405234801561001057600080fd5b50336000806101000a81548173ffffffffffffffffffffffffffffffffffffffff021916908373ffffffffffffffffffffffffffffffffffffffff160217905550611edf806100606000396000f3fe608060405234801561001057600080fd5b506004361061009e5760003560e01c80635141b046116100665780635141b0461461018b5780636df817e0146101be5780637fda5202146101f2578063b1b718891461020e578063f851a4401461022a5761009e565b80631d38c3c0146100a35780631fef580c146100d7578063365b98b21461010a57806337693f181461013c5780634eaaa09314610158575b600080fd5b6100bd60048036038101906100b89190611962565b610248565b6040516100ce959493929190611b59565b60405180910390f35b6100f160048036038101906100ec9190611962565b610600565b6040516101019493929190611aff565b60405180910390f35b610124600480360381019061011f9190611962565b61096d565b60405161013393929190611c22565b60405180910390f35b610156600480360381019061015191906117f4565b610a4f565b005b610172600480360381019061016d9190611962565b610b7a565b6040516101829493929190611bc8565b60405180910390f35b6101a560048036038101906101a09190611962565b610d72565b6040516101b59493929190611bc8565b60405180910390f35b6101d860048036038101906101d39190611962565b610f6a565b6040516101e9959493929190611b59565b60405180910390f35b61020c600480360381019061020791906118b7565b611322565b005b610228600480360381019061022391906117f4565b61143a565b005b610232611565565b60405161023f9190611ae4565b60405180910390f35b60006060806060806001805490508610610297576040517f08c379a000000000000000000000000000000000000000000000000000000000815260040161028e90611c60565b60405180910390fd5b6000600287815481106102d3577f4e487b7100000000000000000000000000000000000000000000000000000000600052603260045260246000fd5b90600052602060002090600502016040518060a00160405290816000820160009054906101000a900473ffffffffffffffffffffffffffffffffffffffff1673ffffffffffffffffffffffffffffffffffffffff1673ffffffffffffffffffffffffffffffffffffffff16815260200160018201805461035290611df1565b80601f016020809104026020016040519081016040528092919081815260200182805461037e90611df1565b80156103cb5780601f106103a0576101008083540402835291602001916103cb565b820191906000526020600020905b8154815290600101906020018083116103ae57829003601f168201915b5050505050815260200160028201805480602002602001604051908101604052809291908181526020016000905b828210156104a557838290600052602060002001805461041890611df1565b80601f016020809104026020016040519081016040528092919081815260200182805461044490611df1565b80156104915780601f1061046657610100808354040283529160200191610491565b820191906000526020600020905b81548152906001019060200180831161047457829003601f168201915b5050505050815260200190600101906103f9565b5050505081526020016003820180546104bd90611df1565b80601f01602080910402602001604051908101604052809291908181526020018280546104e990611df1565b80156105365780601f1061050b57610100808354040283529160200191610536565b820191906000526020600020905b81548152906001019060200180831161051957829003601f168201915b5050505050815260200160048201805461054f90611df1565b80601f016020809104026020016040519081016040528092919081815260200182805461057b90611df1565b80156105c85780601f1061059d576101008083540402835291602001916105c8565b820191906000526020600020905b8154815290600101906020018083116105ab57829003601f168201915b505050505081525050905080600001518160200151826040015183606001518460800151955095509550955095505091939590929450565b60006060806060600180549050851061064e576040517f08c379a000000000000000000000000000000000000000000000000000000000815260040161064590611c60565b60405180910390fd5b60006001868154811061068a577f4e487b7100000000000000000000000000000000000000000000000000000000600052603260045260246000fd5b90600052602060002090600502016040518060a00160405290816000820160009054906101000a900473ffffffffffffffffffffffffffffffffffffffff1673ffffffffffffffffffffffffffffffffffffffff1673ffffffffffffffffffffffffffffffffffffffff16815260200160018201805461070990611df1565b80601f016020809104026020016040519081016040528092919081815260200182805461073590611df1565b80156107825780601f1061075757610100808354040283529160200191610782565b820191906000526020600020905b81548152906001019060200180831161076557829003601f168201915b505050505081526020016002820154815260200160038201805480602002602001604051908101604052809291908181526020016000905b828210156108665783829060005260206000200180546107d990611df1565b80601f016020809104026020016040519081016040528092919081815260200182805461080590611df1565b80156108525780601f1061082757610100808354040283529160200191610852565b820191906000526020600020905b81548152906001019060200180831161083557829003601f168201915b5050505050815260200190600101906107ba565b50505050815260200160048201805480602002602001604051908101604052809291908181526020016000905b8282101561093f5783829060005260206000200180546108b290611df1565b80601f01602080910402602001604051908101604052809291908181526020018280546108de90611df1565b801561092b5780601f106109005761010080835404028352916020019161092b565b820191906000526020600020905b81548152906001019060200180831161090e57829003601f168201915b505050505081526020019060010190610893565b5050505081525050905080600001518160200151826060015183608001519450945094509450509193509193565b6001818154811061097d57600080fd5b90600052602060002090600502016000915090508060000160009054906101000a900473ffffffffffffffffffffffffffffffffffffffff16908060010180546109c690611df1565b80601f01602080910402602001604051908101604052809291908181526020018280546109f290611df1565b8015610a3f5780601f10610a1457610100808354040283529160200191610a3f565b820191906000526020600020905b815481529060010190602001808311610a2257829003601f168201915b5050505050908060020154905083565b60026040518060a001604052803373ffffffffffffffffffffffffffffffffffffffff16815260200186815260200185815260200184815260200183815250908060018154018082558091505060019003906000526020600020906005020160009091909190915060008201518160000160006101000a81548173ffffffffffffffffffffffffffffffffffffffff021916908373ffffffffffffffffffffffffffffffffffffffff1602179055506020820151816001019080519060200190610b1a929190611589565b506040820151816002019080519060200190610b3792919061160f565b506060820151816003019080519060200190610b54929190611589565b506080820151816004019080519060200190610b71929190611589565b50505050505050565b60038181548110610b8a57600080fd5b90600052602060002090600502016000915090508060000160009054906101000a900473ffffffffffffffffffffffffffffffffffffffff1690806001018054610bd390611df1565b80601f0160208091040260200160405190810160405280929190818152602001828054610bff90611df1565b8015610c4c5780601f10610c2157610100808354040283529160200191610c4c565b820191906000526020600020905b815481529060010190602001808311610c2f57829003601f168201915b505050505090806003018054610c6190611df1565b80601f0160208091040260200160405190810160405280929190818152602001828054610c8d90611df1565b8015610cda5780601f10610caf57610100808354040283529160200191610cda565b820191906000526020600020905b815481529060010190602001808311610cbd57829003601f168201915b505050505090806004018054610cef90611df1565b80601f0160208091040260200160405190810160405280929190818152602001828054610d1b90611df1565b8015610d685780601f10610d3d57610100808354040283529160200191610d68565b820191906000526020600020905b815481529060010190602001808311610d4b57829003601f168201915b5050505050905084565b60028181548110610d8257600080fd5b90600052602060002090600502016000915090508060000160009054906101000a900473ffffffffffffffffffffffffffffffffffffffff1690806001018054610dcb90611df1565b80601f0160208091040260200160405190810160405280929190818152602001828054610df790611df1565b8015610e445780601f10610e1957610100808354040283529160200191610e44565b820191906000526020600020905b815481529060010190602001808311610e2757829003601f168201915b505050505090806003018054610e5990611df1565b80601f0160208091040260200160405190810160405280929190818152602001828054610e8590611df1565b8015610ed25780601f10610ea757610100808354040283529160200191610ed2565b820191906000526020600020905b815481529060010190602001808311610eb557829003601f168201915b505050505090806004018054610ee790611df1565b80601f0160208091040260200160405190810160405280929190818152602001828054610f1390611df1565b8015610f605780601f10610f3557610100808354040283529160200191610f60565b820191906000526020600020905b815481529060010190602001808311610f4357829003601f168201915b5050505050905084565b60006060806060806001805490508610610fb9576040517f08c379a0000000000000000000000000000000000000000000000000000000008152600401610fb090611c60565b60405180910390fd5b600060038781548110610ff5577f4e487b7100000000000000000000000000000000000000000000000000000000600052603260045260246000fd5b90600052602060002090600502016040518060a00160405290816000820160009054906101000a900473ffffffffffffffffffffffffffffffffffffffff1673ffffffffffffffffffffffffffffffffffffffff1673ffffffffffffffffffffffffffffffffffffffff16815260200160018201805461107490611df1565b80601f01602080910402602001604051908101604052809291908181526020018280546110a090611df1565b80156110ed5780601f106110c2576101008083540402835291602001916110ed565b820191906000526020600020905b8154815290600101906020018083116110d057829003601f168201915b5050505050815260200160028201805480602002602001604051908101604052809291908181526020016000905b828210156111c757838290600052602060002001805461113a90611df1565b80601f016020809104026020016040519081016040528092919081815260200182805461116690611df1565b80156111b35780601f10611188576101008083540402835291602001916111b3565b820191906000526020600020905b81548152906001019060200180831161119657829003601f168201915b50505050508152602001906001019061111b565b5050505081526020016003820180546111df90611df1565b80601f016020809104026020016040519081016040528092919081815260200182805461120b90611df1565b80156112585780601f1061122d57610100808354040283529160200191611258565b820191906000526020600020905b81548152906001019060200180831161123b57829003601f168201915b5050505050815260200160048201805461127190611df1565b80601f016020809104026020016040519081016040528092919081815260200182805461129d90611df1565b80156112ea5780601f106112bf576101008083540402835291602001916112ea565b820191906000526020600020905b8154815290600101906020018083116112cd57829003601f168201915b505050505081525050905080600001518160200151826040015183606001518460800151955095509550955095505091939590929450565b60016040518060a001604052803373ffffffffffffffffffffffffffffffffffffffff16815260200186815260200185815260200184815260200183815250908060018154018082558091505060019003906000526020600020906005020160009091909190915060008201518160000160006101000a81548173ffffffffffffffffffffffffffffffffffffffff021916908373ffffffffffffffffffffffffffffffffffffffff16021790555060208201518160010190805190602001906113ed929190611589565b5060408201518160020155606082015181600301908051906020019061141492919061160f565b50608082015181600401908051906020019061143192919061160f565b50505050505050565b60036040518060a001604052803373ffffffffffffffffffffffffffffffffffffffff16815260200186815260200185815260200184815260200183815250908060018154018082558091505060019003906000526020600020906005020160009091909190915060008201518160000160006101000a81548173ffffffffffffffffffffffffffffffffffffffff021916908373ffffffffffffffffffffffffffffffffffffffff1602179055506020820151816001019080519060200190611505929190611589565b50604082015181600201908051906020019061152292919061160f565b50606082015181600301908051906020019061153f929190611589565b50608082015181600401908051906020019061155c929190611589565b50505050505050565b60008054906101000a900473ffffffffffffffffffffffffffffffffffffffff1681565b82805461159590611df1565b90600052602060002090601f0160209004810192826115b757600085556115fe565b82601f106115d057805160ff19168380011785556115fe565b828001600101855582156115fe579182015b828111156115fd5782518255916020019190600101906115e2565b5b50905061160b919061166f565b5090565b82805482825590600052602060002090810192821561165e579160200282015b8281111561165d57825182908051906020019061164d929190611589565b509160200191906001019061162f565b5b50905061166b919061168c565b5090565b5b80821115611688576000816000905550600101611670565b5090565b5b808211156116ac57600081816116a391906116b0565b5060010161168d565b5090565b5080546116bc90611df1565b6000825580601f106116ce57506116ed565b601f0160209004906000526020600020908101906116ec919061166f565b5b50565b60006117036116fe84611cb1565b611c80565b9050808382526020820190508260005b85811015611743578135850161172988826117b5565b845260208401935060208301925050600181019050611713565b5050509392505050565b600061176061175b84611cdd565b611c80565b90508281526020810184848401111561177857600080fd5b611783848285611daf565b509392505050565b600082601f83011261179c57600080fd5b81356117ac8482602086016116f0565b91505092915050565b600082601f8301126117c657600080fd5b81356117d684826020860161174d565b91505092915050565b6000813590506117ee81611e92565b92915050565b6000806000806080858703121561180a57600080fd5b600085013567ffffffffffffffff81111561182457600080fd5b611830878288016117b5565b945050602085013567ffffffffffffffff81111561184d57600080fd5b6118598782880161178b565b935050604085013567ffffffffffffffff81111561187657600080fd5b611882878288016117b5565b925050606085013567ffffffffffffffff81111561189f57600080fd5b6118ab878288016117b5565b91505092959194509250565b600080600080608085870312156118cd57600080fd5b600085013567ffffffffffffffff8111156118e757600080fd5b6118f3878288016117b5565b9450506020611904878288016117df565b935050604085013567ffffffffffffffff81111561192157600080fd5b61192d8782880161178b565b925050606085013567ffffffffffffffff81111561194a57600080fd5b6119568782880161178b565b91505092959194509250565b60006020828403121561197457600080fd5b6000611982848285016117df565b91505092915050565b60006119978383611a23565b905092915050565b6119a881611d73565b82525050565b60006119b982611d1d565b6119c38185611d40565b9350836020820285016119d585611d0d565b8060005b85811015611a1157848403895281516119f2858261198b565b94506119fd83611d33565b925060208a019950506001810190506119d9565b50829750879550505050505092915050565b6000611a2e82611d28565b611a388185611d51565b9350611a48818560208601611dbe565b611a5181611e81565b840191505092915050565b6000611a6782611d28565b611a718185611d62565b9350611a81818560208601611dbe565b611a8a81611e81565b840191505092915050565b6000611aa2601883611d62565b91507f5573657220696e646578206f7574206f6620626f756e647300000000000000006000830152602082019050919050565b611ade81611da5565b82525050565b6000602082019050611af9600083018461199f565b92915050565b6000608082019050611b14600083018761199f565b8181036020830152611b268186611a5c565b90508181036040830152611b3a81856119ae565b90508181036060830152611b4e81846119ae565b905095945050505050565b600060a082019050611b6e600083018861199f565b8181036020830152611b808187611a5c565b90508181036040830152611b9481866119ae565b90508181036060830152611ba88185611a5c565b90508181036080830152611bbc8184611a5c565b90509695505050505050565b6000608082019050611bdd600083018761199f565b8181036020830152611bef8186611a5c565b90508181036040830152611c038185611a5c565b90508181036060830152611c178184611a5c565b905095945050505050565b6000606082019050611c37600083018661199f565b8181036020830152611c498185611a5c565b9050611c586040830184611ad5565b949350505050565b60006020820190508181036000830152611c7981611a95565b9050919050565b6000604051905081810181811067ffffffffffffffff82111715611ca757611ca6611e52565b5b8060405250919050565b600067ffffffffffffffff821115611ccc57611ccb611e52565b5b602082029050602081019050919050565b600067ffffffffffffffff821115611cf857611cf7611e52565b5b601f19601f8301169050602081019050919050565b6000819050602082019050919050565b600081519050919050565b600081519050919050565b6000602082019050919050565b600082825260208201905092915050565b600082825260208201905092915050565b600082825260208201905092915050565b6000611d7e82611d85565b9050919050565b600073ffffffffffffffffffffffffffffffffffffffff82169050919050565b6000819050919050565b82818337600083830152505050565b60005b83811015611ddc578082015181840152602081019050611dc1565b83811115611deb576000848401525b50505050565b60006002820490506001821680611e0957607f821691505b60208210811415611e1d57611e1c611e23565b5b50919050565b7f4e487b7100000000000000000000000000000000000000000000000000000000600052602260045260246000fd5b7f4e487b7100000000000000000000000000000000000000000000000000000000600052604160045260246000fd5b6000601f19601f8301169050919050565b611e9b81611da5565b8114611ea657600080fd5b5056fea264697066735822122023b01ca5ca07c9bf7232d99a333e6cd337dc2e7d72eb9f8d347bdbb69c8dd86064736f6c63430008000033",
  "immutableReferences": {},
  "source": "// SPDX-License-Identifier: MIT\r\npragma solidity ^0.8.0;\r\n\r\ncontract OrganDonation {\r\n    address public admin; // The contract administrator\r\n\r\n    struct User {\r\n    address donorAddress;\r\n    string name;\r\n    uint256 aadhaar;\r\n    string[] donate;\r\n    string[] donatedeath;\r\n        }\r\n\r\n    struct DeceasedDonor{\r\n        address donorAddress;\r\n        string name;\r\n        string[] donatedeath;\r\n        string details;\r\n        string storagedetails;\r\n    }\r\n\r\n    struct AliveDonor{\r\n        address donorAddress;\r\n        string name;\r\n        string[] donate;\r\n        string details;\r\n        string storagedetails;\r\n    }\r\n\r\n\r\n    User[] public users;\r\n    DeceasedDonor[] public deceasedDonors;\r\n    AliveDonor[] public aliveDonors;\r\n\r\n\r\n\r\n    constructor() {\r\n        admin = msg.sender;\r\n    }\r\n\r\n    modifier onlyAdmin() {\r\n        require(msg.sender == admin, \"Only the administrator can call this function\");\r\n        _;\r\n    }\r\n    event UserRegistered(address userAddress, string name, string email);\r\n\r\n    function registerUser\r\n    (\r\n        string memory _name,\r\n        uint256 _aadhaar,\r\n        string[] memory _donate,\r\n        string[] memory _donatedeath\r\n        ) public {\r\n        users.push(User({\r\n            donorAddress: msg.sender,\r\n            name:_name,\r\n            aadhaar:_aadhaar,\r\n            donate:_donate,\r\n            donatedeath:_donatedeath\r\n        }));\r\n    }\r\n\r\n\r\n\r\n    function registerDeceasedDonor\r\n    (\r\n        string memory _name,\r\n        string[] memory _donatedeath,\r\n        string memory _details,\r\n        string memory _storagedetails\r\n        \r\n        ) public {\r\n        deceasedDonors.push(DeceasedDonor({\r\n            donorAddress: msg.sender,\r\n            name:_name,\r\n            donatedeath:_donatedeath,\r\n            details:_details,\r\n            storagedetails:_storagedetails\r\n        }));\r\n    }\r\n\r\n\r\n    function registerAliveDonor\r\n    (\r\n        string memory _name,\r\n        string[] memory _donate,\r\n        string memory _details,\r\n        string memory _storagedetails\r\n        \r\n        ) public {\r\n        aliveDonors.push(AliveDonor({\r\n            donorAddress: msg.sender,\r\n            name:_name,\r\n            donate:_donate,\r\n            details:_details,\r\n            storagedetails:_storagedetails\r\n        }));\r\n    }\r\n\r\n\r\n    function getUserData(uint256 index) public view returns (\r\n    address donorAddress,\r\n    string memory name,\r\n    string[] memory donate,\r\n    string[] memory donatedeath\r\n            ) {\r\n    require(index < users.length, \"User index out of bounds\");\r\n\r\n    User memory user = users[index];\r\n    return (\r\n        user.donorAddress,\r\n        user.name,\r\n        user.donate,\r\n        user.donatedeath\r\n    );\r\n    }\r\n\r\n    function getDeceasedDonorData(uint256 index) public view returns (\r\n    address donorAddress,\r\n    string memory name,\r\n    string[] memory donatedeath,\r\n    string memory details,\r\n        string memory storagedetails\r\n            ) {\r\n    require(index < users.length, \"User index out of bounds\");\r\n\r\n    DeceasedDonor memory donor = deceasedDonors[index];\r\n    return (\r\n        donor.donorAddress,\r\n        donor.name,\r\n        donor.donatedeath,\r\n        donor.details,\r\n        donor.storagedetails\r\n    );\r\n}\r\n\r\nfunction getAliveDonorData(uint256 index) public view returns (\r\n    address donorAddress,\r\n    string memory name,\r\n    string[] memory donate,\r\n    string memory details,\r\n        string memory storagedetails\r\n            ) {\r\n    require(index < users.length, \"User index out of bounds\");\r\n\r\n    AliveDonor memory donor = aliveDonors[index];\r\n    return (\r\n        donor.donorAddress,\r\n        donor.name,\r\n        donor.donate,\r\n        donor.details,\r\n        donor.storagedetails\r\n    );\r\n}\r\n\r\n\r\n\r\n}\r\n",
  "sourcePath": "C:\\Users\\vaide\\jake\\organ-web3\\contracts\\OrganDonation.sol",
  "compiler": {
    "name": "solc",
    "version": "0.8.0+commit.c7dfd78e.Emscripten.clang"
  },
  "schemaVersion": "3.4.16",
  "updatedAt": "2023-11-08T03:38:28.295Z",
  "networkType": "ethereum",
  "devdoc": {
    "kind": "dev",
    "methods": {},
    "version": 1
  },
  "userdoc": {
    "kind": "user",
    "methods": {},
    "version": 1
  }
}