{
  "contractName": "OrganDonation",
  "abi": [
    {
      "inputs": [],
      "stateMutability": "nonpayable",
      "type": "constructor"
    },
    {
      "anonymous": false,
      "inputs": [
        {
          "indexed": false,
          "internalType": "address",
          "name": "userAddress",
          "type": "address"
        },
        {
          "indexed": false,
          "internalType": "string",
          "name": "name",
          "type": "string"
        },
        {
          "indexed": false,
          "internalType": "string",
          "name": "email",
          "type": "string"
        }
      ],
      "name": "UserRegistered",
      "type": "event"
    },
    {
      "inputs": [],
      "name": "admin",
      "outputs": [
        {
          "internalType": "address",
          "name": "",
          "type": "address"
        }
      ],
      "stateMutability": "view",
      "type": "function",
      "constant": true
    },
    {
      "inputs": [
        {
          "internalType": "uint256",
          "name": "",
          "type": "uint256"
        }
      ],
      "name": "users",
      "outputs": [
        {
          "internalType": "address",
          "name": "donorAddress",
          "type": "address"
        },
        {
          "internalType": "string",
          "name": "name",
          "type": "string"
        },
        {
          "internalType": "uint256",
          "name": "aadhaar",
          "type": "uint256"
        }
      ],
      "stateMutability": "view",
      "type": "function",
      "constant": true
    },
    {
      "inputs": [
        {
          "internalType": "string",
          "name": "_name",
          "type": "string"
        },
        {
          "internalType": "uint256",
          "name": "_aadhaar",
          "type": "uint256"
        },
        {
          "internalType": "string[]",
          "name": "_donate",
          "type": "string[]"
        },
        {
          "internalType": "string[]",
          "name": "_donatedeath",
          "type": "string[]"
        }
      ],
      "name": "registerUser",
      "outputs": [],
      "stateMutability": "nonpayable",
      "type": "function"
    },
    {
      "inputs": [
        {
          "internalType": "uint256",
          "name": "index",
          "type": "uint256"
        }
      ],
      "name": "getUserData",
      "outputs": [
        {
          "internalType": "address",
          "name": "donorAddress",
          "type": "address"
        },
        {
          "internalType": "string",
          "name": "name",
          "type": "string"
        },
        {
          "internalType": "uint256",
          "name": "aadhaar",
          "type": "uint256"
        },
        {
          "internalType": "string[]",
          "name": "donate",
          "type": "string[]"
        },
        {
          "internalType": "string[]",
          "name": "donatedeath",
          "type": "string[]"
        }
      ],
      "stateMutability": "view",
      "type": "function",
      "constant": true
    }
  ],
  "bytecode": "0x608060405234801561001057600080fd5b50336000806101000a81548173ffffffffffffffffffffffffffffffffffffffff021916908373ffffffffffffffffffffffffffffffffffffffff160217905550610e5f806100606000396000f3fe608060405234801561001057600080fd5b506004361061004c5760003560e01c80631fef580c14610051578063365b98b2146100855780637fda5202146100b7578063f851a440146100d3575b600080fd5b61006b6004803603810190610066919061099d565b6100f1565b60405161007c959493929190610b78565b60405180910390f35b61009f600480360381019061009a919061099d565b610469565b6040516100ae93929190610b3a565b60405180910390f35b6100d160048036038101906100cc91906108f2565b61054b565b005b6100db610663565b6040516100e89190610b1f565b60405180910390f35b6000606060006060806001805490508610610141576040517f08c379a000000000000000000000000000000000000000000000000000000000815260040161013890610be0565b60405180910390fd5b60006001878154811061017d577f4e487b7100000000000000000000000000000000000000000000000000000000600052603260045260246000fd5b90600052602060002090600502016040518060a00160405290816000820160009054906101000a900473ffffffffffffffffffffffffffffffffffffffff1673ffffffffffffffffffffffffffffffffffffffff1673ffffffffffffffffffffffffffffffffffffffff1681526020016001820180546101fc90610d71565b80601f016020809104026020016040519081016040528092919081815260200182805461022890610d71565b80156102755780601f1061024a57610100808354040283529160200191610275565b820191906000526020600020905b81548152906001019060200180831161025857829003601f168201915b505050505081526020016002820154815260200160038201805480602002602001604051908101604052809291908181526020016000905b828210156103595783829060005260206000200180546102cc90610d71565b80601f01602080910402602001604051908101604052809291908181526020018280546102f890610d71565b80156103455780601f1061031a57610100808354040283529160200191610345565b820191906000526020600020905b81548152906001019060200180831161032857829003601f168201915b5050505050815260200190600101906102ad565b50505050815260200160048201805480602002602001604051908101604052809291908181526020016000905b828210156104325783829060005260206000200180546103a590610d71565b80601f01602080910402602001604051908101604052809291908181526020018280546103d190610d71565b801561041e5780601f106103f35761010080835404028352916020019161041e565b820191906000526020600020905b81548152906001019060200180831161040157829003601f168201915b505050505081526020019060010190610386565b5050505081525050905080600001518160200151826040015183606001518460800151955095509550955095505091939590929450565b6001818154811061047957600080fd5b90600052602060002090600502016000915090508060000160009054906101000a900473ffffffffffffffffffffffffffffffffffffffff16908060010180546104c290610d71565b80601f01602080910402602001604051908101604052809291908181526020018280546104ee90610d71565b801561053b5780601f106105105761010080835404028352916020019161053b565b820191906000526020600020905b81548152906001019060200180831161051e57829003601f168201915b5050505050908060020154905083565b60016040518060a001604052803373ffffffffffffffffffffffffffffffffffffffff16815260200186815260200185815260200184815260200183815250908060018154018082558091505060019003906000526020600020906005020160009091909190915060008201518160000160006101000a81548173ffffffffffffffffffffffffffffffffffffffff021916908373ffffffffffffffffffffffffffffffffffffffff1602179055506020820151816001019080519060200190610616929190610687565b5060408201518160020155606082015181600301908051906020019061063d92919061070d565b50608082015181600401908051906020019061065a92919061070d565b50505050505050565b60008054906101000a900473ffffffffffffffffffffffffffffffffffffffff1681565b82805461069390610d71565b90600052602060002090601f0160209004810192826106b557600085556106fc565b82601f106106ce57805160ff19168380011785556106fc565b828001600101855582156106fc579182015b828111156106fb5782518255916020019190600101906106e0565b5b509050610709919061076d565b5090565b82805482825590600052602060002090810192821561075c579160200282015b8281111561075b57825182908051906020019061074b929190610687565b509160200191906001019061072d565b5b509050610769919061078a565b5090565b5b8082111561078657600081600090555060010161076e565b5090565b5b808211156107aa57600081816107a191906107ae565b5060010161078b565b5090565b5080546107ba90610d71565b6000825580601f106107cc57506107eb565b601f0160209004906000526020600020908101906107ea919061076d565b5b50565b60006108016107fc84610c31565b610c00565b9050808382526020820190508260005b85811015610841578135850161082788826108b3565b845260208401935060208301925050600181019050610811565b5050509392505050565b600061085e61085984610c5d565b610c00565b90508281526020810184848401111561087657600080fd5b610881848285610d2f565b509392505050565b600082601f83011261089a57600080fd5b81356108aa8482602086016107ee565b91505092915050565b600082601f8301126108c457600080fd5b81356108d484826020860161084b565b91505092915050565b6000813590506108ec81610e12565b92915050565b6000806000806080858703121561090857600080fd5b600085013567ffffffffffffffff81111561092257600080fd5b61092e878288016108b3565b945050602061093f878288016108dd565b935050604085013567ffffffffffffffff81111561095c57600080fd5b61096887828801610889565b925050606085013567ffffffffffffffff81111561098557600080fd5b61099187828801610889565b91505092959194509250565b6000602082840312156109af57600080fd5b60006109bd848285016108dd565b91505092915050565b60006109d28383610a5e565b905092915050565b6109e381610cf3565b82525050565b60006109f482610c9d565b6109fe8185610cc0565b935083602082028501610a1085610c8d565b8060005b85811015610a4c5784840389528151610a2d85826109c6565b9450610a3883610cb3565b925060208a01995050600181019050610a14565b50829750879550505050505092915050565b6000610a6982610ca8565b610a738185610cd1565b9350610a83818560208601610d3e565b610a8c81610e01565b840191505092915050565b6000610aa282610ca8565b610aac8185610ce2565b9350610abc818560208601610d3e565b610ac581610e01565b840191505092915050565b6000610add601883610ce2565b91507f5573657220696e646578206f7574206f6620626f756e647300000000000000006000830152602082019050919050565b610b1981610d25565b82525050565b6000602082019050610b3460008301846109da565b92915050565b6000606082019050610b4f60008301866109da565b8181036020830152610b618185610a97565b9050610b706040830184610b10565b949350505050565b600060a082019050610b8d60008301886109da565b8181036020830152610b9f8187610a97565b9050610bae6040830186610b10565b8181036060830152610bc081856109e9565b90508181036080830152610bd481846109e9565b90509695505050505050565b60006020820190508181036000830152610bf981610ad0565b9050919050565b6000604051905081810181811067ffffffffffffffff82111715610c2757610c26610dd2565b5b8060405250919050565b600067ffffffffffffffff821115610c4c57610c4b610dd2565b5b602082029050602081019050919050565b600067ffffffffffffffff821115610c7857610c77610dd2565b5b601f19601f8301169050602081019050919050565b6000819050602082019050919050565b600081519050919050565b600081519050919050565b6000602082019050919050565b600082825260208201905092915050565b600082825260208201905092915050565b600082825260208201905092915050565b6000610cfe82610d05565b9050919050565b600073ffffffffffffffffffffffffffffffffffffffff82169050919050565b6000819050919050565b82818337600083830152505050565b60005b83811015610d5c578082015181840152602081019050610d41565b83811115610d6b576000848401525b50505050565b60006002820490506001821680610d8957607f821691505b60208210811415610d9d57610d9c610da3565b5b50919050565b7f4e487b7100000000000000000000000000000000000000000000000000000000600052602260045260246000fd5b7f4e487b7100000000000000000000000000000000000000000000000000000000600052604160045260246000fd5b6000601f19601f8301169050919050565b610e1b81610d25565b8114610e2657600080fd5b5056fea2646970667358221220fd111acb0ad1193367481988dad25ec684a782c373e8d1fab7f4bcf8bb62f47b64736f6c63430008000033",
  "immutableReferences": {},
  "source": "// SPDX-License-Identifier: MIT\r\npragma solidity ^0.8.0;\r\n\r\ncontract OrganDonation {\r\n    address public admin; // The contract administrator\r\n\r\n    struct User {\r\n    address donorAddress;\r\n    string name;\r\n    uint256 aadhaar;\r\n    string[] donate;\r\n    string[] donatedeath;\r\n}\r\n    User[] public users;\r\n\r\n    constructor() {\r\n        admin = msg.sender;\r\n    }\r\n\r\n    modifier onlyAdmin() {\r\n        require(msg.sender == admin, \"Only the administrator can call this function\");\r\n        _;\r\n    }\r\n    event UserRegistered(address userAddress, string name, string email);\r\n\r\n    function registerUser\r\n    (\r\n        string memory _name,\r\n        uint256 _aadhaar,\r\n        string[] memory _donate,\r\n        string[] memory _donatedeath\r\n        ) public {\r\n        users.push(User({\r\n            donorAddress: msg.sender,\r\n            name:_name,\r\n            aadhaar:_aadhaar,\r\n            donate:_donate,\r\n            donatedeath:_donatedeath\r\n        }));\r\n    }\r\n\r\n    function getUserData(uint256 index) public view returns (\r\n    address donorAddress,\r\n    string memory name,\r\n    uint256 aadhaar,\r\n    string[] memory donate,\r\n    string[] memory donatedeath\r\n) {\r\n    require(index < users.length, \"User index out of bounds\");\r\n\r\n    User memory user = users[index];\r\n    return (\r\n        user.donorAddress,\r\n        user.name,\r\n        user.aadhaar,\r\n        user.donate,\r\n        user.donatedeath\r\n    );\r\n}\r\n\r\n\r\n}\r\n",
  "sourcePath": "C:\\Users\\vaide\\jake\\organ-web3\\contracts\\OrganDonation.sol",
  "compiler": {
    "name": "solc",
    "version": "0.8.0+commit.c7dfd78e.Emscripten.clang"
  },
  "schemaVersion": "3.4.16",
  "updatedAt": "2023-11-06T07:17:15.956Z",
  "networkType": "ethereum",
  "devdoc": {
    "kind": "dev",
    "methods": {},
    "version": 1
  },
  "userdoc": {
    "kind": "user",
    "methods": {},
    "version": 1
  }
}