{
  "contractName": "OrganDonation",
  "abi": [
    {
      "inputs": [],
      "stateMutability": "nonpayable",
      "type": "constructor"
    },
    {
      "anonymous": false,
      "inputs": [
        {
          "indexed": false,
          "internalType": "address",
          "name": "userAddress",
          "type": "address"
        },
        {
          "indexed": false,
          "internalType": "string",
          "name": "name",
          "type": "string"
        },
        {
          "indexed": false,
          "internalType": "string",
          "name": "email",
          "type": "string"
        }
      ],
      "name": "UserRegistered",
      "type": "event"
    },
    {
      "inputs": [],
      "name": "admin",
      "outputs": [
        {
          "internalType": "address",
          "name": "",
          "type": "address"
        }
      ],
      "stateMutability": "view",
      "type": "function",
      "constant": true
    },
    {
      "inputs": [
        {
          "internalType": "uint256",
          "name": "",
          "type": "uint256"
        }
      ],
      "name": "users",
      "outputs": [
        {
          "internalType": "address",
          "name": "donorAddress",
          "type": "address"
        }
      ],
      "stateMutability": "view",
      "type": "function",
      "constant": true
    },
    {
      "inputs": [
        {
          "internalType": "string[]",
          "name": "_donate",
          "type": "string[]"
        },
        {
          "internalType": "string[]",
          "name": "_donatedeath",
          "type": "string[]"
        }
      ],
      "name": "registerUser",
      "outputs": [],
      "stateMutability": "nonpayable",
      "type": "function"
    },
    {
      "inputs": [
        {
          "internalType": "uint256",
          "name": "index",
          "type": "uint256"
        }
      ],
      "name": "getUserData",
      "outputs": [
        {
          "internalType": "address",
          "name": "donorAddress",
          "type": "address"
        },
        {
          "internalType": "string[]",
          "name": "donate",
          "type": "string[]"
        },
        {
          "internalType": "string[]",
          "name": "donatedeath",
          "type": "string[]"
        }
      ],
      "stateMutability": "view",
      "type": "function",
      "constant": true
    }
  ],
  "bytecode": "0x608060405234801561001057600080fd5b50336000806101000a81548173ffffffffffffffffffffffffffffffffffffffff021916908373ffffffffffffffffffffffffffffffffffffffff160217905550610bfa806100606000396000f3fe608060405234801561001057600080fd5b506004361061004c5760003560e01c80631fef580c14610051578063365b98b214610083578063b32ae43a146100b3578063f851a440146100cf575b600080fd5b61006b600480360381019061006691906107e1565b6100ed565b60405161007a93929190610936565b60405180910390f35b61009d600480360381019061009891906107e1565b6103b5565b6040516100aa919061091b565b60405180910390f35b6100cd60048036038101906100c89190610775565b610403565b005b6100d76104e6565b6040516100e4919061091b565b60405180910390f35b60006060806001805490508410610139576040517f08c379a00000000000000000000000000000000000000000000000000000000081526004016101309061097b565b60405180910390fd5b600060018581548110610175577f4e487b7100000000000000000000000000000000000000000000000000000000600052603260045260246000fd5b90600052602060002090600302016040518060600160405290816000820160009054906101000a900473ffffffffffffffffffffffffffffffffffffffff1673ffffffffffffffffffffffffffffffffffffffff1673ffffffffffffffffffffffffffffffffffffffff16815260200160018201805480602002602001604051908101604052809291908181526020016000905b828210156102b557838290600052602060002001805461022890610b0c565b80601f016020809104026020016040519081016040528092919081815260200182805461025490610b0c565b80156102a15780601f10610276576101008083540402835291602001916102a1565b820191906000526020600020905b81548152906001019060200180831161028457829003601f168201915b505050505081526020019060010190610209565b50505050815260200160028201805480602002602001604051908101604052809291908181526020016000905b8282101561038e57838290600052602060002001805461030190610b0c565b80601f016020809104026020016040519081016040528092919081815260200182805461032d90610b0c565b801561037a5780601f1061034f5761010080835404028352916020019161037a565b820191906000526020600020905b81548152906001019060200180831161035d57829003601f168201915b5050505050815260200190600101906102e2565b50505050815250509050806000015181602001518260400151935093509350509193909250565b600181815481106103c557600080fd5b90600052602060002090600302016000915090508060000160009054906101000a900473ffffffffffffffffffffffffffffffffffffffff16905081565b600160405180606001604052803373ffffffffffffffffffffffffffffffffffffffff16815260200184815260200183815250908060018154018082558091505060019003906000526020600020906003020160009091909190915060008201518160000160006101000a81548173ffffffffffffffffffffffffffffffffffffffff021916908373ffffffffffffffffffffffffffffffffffffffff16021790555060208201518160010190805190602001906104c292919061050a565b5060408201518160020190805190602001906104df92919061050a565b5050505050565b60008054906101000a900473ffffffffffffffffffffffffffffffffffffffff1681565b828054828255906000526020600020908101928215610559579160200282015b8281111561055857825182908051906020019061054892919061056a565b509160200191906001019061052a565b5b50905061056691906105f0565b5090565b82805461057690610b0c565b90600052602060002090601f01602090048101928261059857600085556105df565b82601f106105b157805160ff19168380011785556105df565b828001600101855582156105df579182015b828111156105de5782518255916020019190600101906105c3565b5b5090506105ec9190610614565b5090565b5b8082111561061057600081816106079190610631565b506001016105f1565b5090565b5b8082111561062d576000816000905550600101610615565b5090565b50805461063d90610b0c565b6000825580601f1061064f575061066e565b601f01602090049060005260206000209081019061066d9190610614565b5b50565b600061068461067f846109cc565b61099b565b9050808382526020820190508260005b858110156106c457813585016106aa8882610736565b845260208401935060208301925050600181019050610694565b5050509392505050565b60006106e16106dc846109f8565b61099b565b9050828152602081018484840111156106f957600080fd5b610704848285610aca565b509392505050565b600082601f83011261071d57600080fd5b813561072d848260208601610671565b91505092915050565b600082601f83011261074757600080fd5b81356107578482602086016106ce565b91505092915050565b60008135905061076f81610bad565b92915050565b6000806040838503121561078857600080fd5b600083013567ffffffffffffffff8111156107a257600080fd5b6107ae8582860161070c565b925050602083013567ffffffffffffffff8111156107cb57600080fd5b6107d78582860161070c565b9150509250929050565b6000602082840312156107f357600080fd5b600061080184828501610760565b91505092915050565b600061081683836108a2565b905092915050565b61082781610a8e565b82525050565b600061083882610a38565b6108428185610a5b565b93508360208202850161085485610a28565b8060005b858110156108905784840389528151610871858261080a565b945061087c83610a4e565b925060208a01995050600181019050610858565b50829750879550505050505092915050565b60006108ad82610a43565b6108b78185610a6c565b93506108c7818560208601610ad9565b6108d081610b9c565b840191505092915050565b60006108e8601883610a7d565b91507f5573657220696e646578206f7574206f6620626f756e647300000000000000006000830152602082019050919050565b6000602082019050610930600083018461081e565b92915050565b600060608201905061094b600083018661081e565b818103602083015261095d818561082d565b90508181036040830152610971818461082d565b9050949350505050565b60006020820190508181036000830152610994816108db565b9050919050565b6000604051905081810181811067ffffffffffffffff821117156109c2576109c1610b6d565b5b8060405250919050565b600067ffffffffffffffff8211156109e7576109e6610b6d565b5b602082029050602081019050919050565b600067ffffffffffffffff821115610a1357610a12610b6d565b5b601f19601f8301169050602081019050919050565b6000819050602082019050919050565b600081519050919050565b600081519050919050565b6000602082019050919050565b600082825260208201905092915050565b600082825260208201905092915050565b600082825260208201905092915050565b6000610a9982610aa0565b9050919050565b600073ffffffffffffffffffffffffffffffffffffffff82169050919050565b6000819050919050565b82818337600083830152505050565b60005b83811015610af7578082015181840152602081019050610adc565b83811115610b06576000848401525b50505050565b60006002820490506001821680610b2457607f821691505b60208210811415610b3857610b37610b3e565b5b50919050565b7f4e487b7100000000000000000000000000000000000000000000000000000000600052602260045260246000fd5b7f4e487b7100000000000000000000000000000000000000000000000000000000600052604160045260246000fd5b6000601f19601f8301169050919050565b610bb681610ac0565b8114610bc157600080fd5b5056fea264697066735822122093408c37e6e7fa399ee0443ae15b2fda811e198fd7798bfc67a09a388277516864736f6c63430008000033",
  "immutableReferences": {},
  "source": "// SPDX-License-Identifier: MIT\r\npragma solidity ^0.8.0;\r\n\r\ncontract OrganDonation {\r\n    address public admin; // The contract administrator\r\n\r\n    struct User {\r\n    address donorAddress;\r\n    string[] donate;\r\n    string[] donatedeath;\r\n}\r\n    User[] public users;\r\n\r\n    constructor() {\r\n        admin = msg.sender;\r\n    }\r\n\r\n    modifier onlyAdmin() {\r\n        require(msg.sender == admin, \"Only the administrator can call this function\");\r\n        _;\r\n    }\r\n    event UserRegistered(address userAddress, string name, string email);\r\n\r\n    function registerUser\r\n    (\r\n        \r\n        string[] memory _donate,\r\n        string[] memory _donatedeath\r\n        ) public {\r\n        users.push(User({\r\n            donorAddress: msg.sender,\r\n            donate:_donate,\r\n            donatedeath:_donatedeath\r\n        }));\r\n    }\r\n\r\n    function getUserData(uint256 index) public view returns (\r\n    address donorAddress,\r\n    string[] memory donate,\r\n    string[] memory donatedeath\r\n) {\r\n    require(index < users.length, \"User index out of bounds\");\r\n\r\n    User memory user = users[index];\r\n    return (\r\n        user.donorAddress,\r\n        user.donate,\r\n        user.donatedeath\r\n    );\r\n}\r\n\r\n\r\n\r\n\r\n\r\n}\r\n",
  "sourcePath": "C:\\Users\\vaide\\jake\\organ-web3\\contracts\\OrganDonation.sol",
  "compiler": {
    "name": "solc",
    "version": "0.8.0+commit.c7dfd78e.Emscripten.clang"
  },
  "schemaVersion": "3.4.16",
  "updatedAt": "2023-11-05T08:06:43.030Z",
  "networkType": "ethereum",
  "devdoc": {
    "kind": "dev",
    "methods": {},
    "version": 1
  },
  "userdoc": {
    "kind": "user",
    "methods": {},
    "version": 1
  }
}